:020000040000fa
:080000000002040000000000f2
:020000040000fa
:10040000cf0521000eff28000e018800000000002b
:100410000c000700e0c02000010020000f000700d2
:10042000000020000000e000020032000000020096
:10043000000000004c030200000000000040da0051
:100440000000fe00c00220000000e00002003200b8
:10045000002020009001880000000600a102880012
:10046000800078000000eb001a003700e2804000b6
:1004700054a0b4009101ba00e280400054a0b4003e
:100480009102ba00e280400054a0b4000002eb00e8
:10049000472bde00f507b200a6018800602ce100c2
:1004a00008003a000049eb000201e80002003900b0
:1004b0003420ec0002f0a0008301e900f9ff3e00c7
:1004c000040037006128e100010032000082eb00e7
:1004d000040007001101ba000200e000e3ff3a0047
:1004e0000000060004d0a300e20f49001c00390000
:1004f000810278003549ba000201e80002003900a3
:100500003420ec0002f0a0008301e9000f0032006b
:100510002549ba000201e800020039003420ec004d
:1005200002f0a0008301e900080032000400e000ae
:100530000600320015c9ba000201e80002003900c5
:100540003420ec0002f0a0008301e9008180e80083
:1005500054a0b4000300e000e2ff3a0000000600ef
:100560009102ba00055978008301e900f7ff3200d3
:10057000c82ade00055978008301e900f3ff320044
:100580000400e000f1ff320011d9ba00eeff37009d
:100590000040da000000fe0000e8a90067416000aa
:1005a0004411dd0033842000f1c8b30093c0600023
:1005b00082c97000680060004300de004700dd0073
:1005c00001822000914078000174a10080c0700079
:1005d0000100780020e8b700000006000621ef00c7
:1005e00061088800800888001061a90000000600ea
:1005f0000a21ef00710888009008880000000600ba
:100600006022b800060220000000d0008180d200e5
:100610000482d2008582d2000000a00002025200b3
:1006200083825a00030031000202420083824a00a2
:100630000000a1000603e900f3ff3a0000000600f5
:020000040000fa
:020000040005f5
:045fe000ddff0000e1
:020000040000fa
:020000040005f5
:045fe400ffff0000bb
:020000040000fa
:020000040005f5
:045fe800ecff0000ca
:020000040000fa
:020000040005f5
:045fec009fff000013
:020000040000fa
:020000040005f5
:045ff00079ff000035
:020000040000fa
:020000040005f5
:045ff400cfff0000db
:020000040000fa
:10000800c8020000fe090000c8020000080a00003b
:10001800c8020000c8020000c8020000c8020000b0
:10002800c8020000c8020000c8020000c8020000a0
:10003800c8020000c8020000c8020000120a00003e
:10004800380a0000c8020000c8020000c802000008
:10005800c8020000c8020000c8020000c802000070
:10006800c8020000c8020000c8020000c802000060
:10007800c8020000c8020000c8020000c802000050
:10008800c8020000c8020000c8020000780b000087
:10009800c8020000c8020000c8020000c802000030
:1000a800c8020000c8020000c8020000c802000020
:1000b800c8020000c8020000c8020000c802000010
:1000c800c8020000c8020000c8020000c802000000
:1000d800c8020000c8020000c8020000c8020000f0
:1000e800c8020000c8020000c8020000c8020000e0
:1000f800c8020000c8020000c8020000c8020000d0
:10010800c8020000c8020000c8020000c8020000bf
:10011800c8020000c8020000c8020000c8020000af
:10012800c8020000c8020000c8020000c80200009f
:10013800c8020000c8020000c8020000c80200008f
:10014800c8020000c8020000c8020000c80200007f
:10015800c8020000c8020000c8020000c80200006f
:10016800c8020000c8020000c8020000c80200005f
:10017800c8020000c8020000c8020000c80200004f
:10018800c8020000c8020000c8020000c80200003f
:10019800c8020000c8020000c8020000c80200002f
:1001a800c8020000c8020000c8020000c80200001f
:1001b800c8020000c8020000c8020000c80200000f
:1001c800c8020000c8020000c8020000c8020000ff
:1001d800c8020000c8020000c8020000c8020000ef
:1001e800c8020000c8020000c8020000c8020000df
:1001f800c8020000c8020000c8020000c8020000cf
:10020800c8020000c8020000c8020000c8020000be
:10021800c8020000c8020000c8020000c8020000ae
:10022800c8020000c8020000c8020000c80200009e
:10023800c8020000c8020000c8020000c80200008e
:10024800c8020000c8020000c8020000c80200007e
:10025800c8020000c8020000c8020000c80200006e
:10026800c8020000c8020000c8020000c80200005e
:0c027800c8020000c8020000c80200001c
:020000040000fa
:10064000476500006e65000072610000746f000075
:1006500072650000206400006920000062610000f3
:100660007272000065200000763000002e3000001d
:1006700031200000313000002f310000312f000008
:100680003233000000000000474400000300000077
:080690001000000064000000ee
:020000040000fa
:100698000200fa00154ea900154ea8000060fe00e1
:1006a800180007000060fe008301070058000700db
:1006b8003a010700790007000060fe0050e12000c1
:1006c800104078000080fb004200de0061406000be
:1006d8000004a20061406000614060004201dd004a
:1006e80050e1200090407800b0cfb30000c0600017
:1006f8000240700051e12000804878004a0007005d
:10070800edff37000000fa000060fe00114ea9005e
:100718008000eb0040e02000010878008000eb003a
:1007280040e120000108780001042c0000e02000ce
:1007380001087800c103200000e1200001087800ca
:1007480011eea9004104200060742000010878001f
:100758004074200010407800f2c3b300824060006b
:1007680040742000014878004074200090407800d0
:1007780000ceb30080c060004074200001487800bb
:10078800c1ac260050fa2d0092ff0700c0ff2f00d1
:100798007fff070020e8a8000060fe008000eb0053
:1007a80040a92000010878008000eb00a0902000fc
:1007b800010878008000eb00c09020000108780054
:1007c800c14524000091200001087800818b280091
:1007d800e090200001087800f1012000c09020007e
:1007e8000108780001c02100a090200001087800cd
:1007f800a090200010007800800078006100b3000d
:10080800a0902000010878000080fa00000006008f
:100818000000fa000060fe000060fe0010002000ea
:100828000080fa00000006000200fa0058d0bf005d
:100838000004e000170032000040eb0058f0b70059
:10084800108280000000e80010828800008280008a
:100858000000e8000082880000828000e70f500056
:10086800020036000000eb000082880020e1200032
:10087800104078008040eb00014f78000004e00051
:1008880002003d0010c0b300004f78001e40780001
:1008980059f0b7000080fa00000006000800fa00ce
:1008a80010c0b300004f78004004210010009000f1
:1008b800300798003e009000e30f500055003200ca
:1008c800be009000e38f500007003e003e009000fd
:1008d800e10f500016003200be009000e18f50007a
:1008e80034003e000a0037003e009000e50f50003b
:1008f80078003200be009000e58f50005d0039009e
:100908003e009000e70f50008e003200a000370034
:10091800009020009000780090ff2f0080806000f9
:1009280000902000010878002108a90098003700ed
:10093800100ea8002108a900400421002000900002
:100948006101b80000702200919b22002aff070075
:10095800200798002e0090008000d10060902000b1
:100968000108780040902000ae009000010878004f
:10097800f1012000209020000108780001c021002a
:1009880000902000010878008000eb00d0f82500d6
:1009980015ff07002108a90000902000100078002a
:1009a800800078006100b300009020000108780002
:1009b8007700370040042100200090006101b80052
:1009c800004e2200715320000bff070020079800fb
:1009d800ae009000d0f82d0003ff070001012000b1
:1009e80040902000010878002108a80001c02100db
:1009f8000090200001087800009020001000780086
:100a0800800078006100b3000090200001087800a1
:100a18005f00370040042100200090006101b80009
:100a2800004e220071532000f3fe070020079800b3
:100a3800ae009000d0f82d00ebfe07000101200069
:100a480040902000010878002108a80001c021007a
:100a58000090200001087800009020001000780025
:100a6800800078006100b300009020000108780041
:100a78004700370040042100200090006101b800c1
:100a8800004e220071532000dbfe0700200798006b
:100a9800ae009000d0f82d00d3fe07000101200021
:100aa80040902000010878002108a80001c021001a
:100ab80000902000010878000090200010007800c5
:100ac800800078006100b3000090200001087800e1
:100ad8002f003700100ea8002108a90040042100ab
:100ae800200090006101b80000702200919b220054
:100af800c1fe07002007980040902000ae0090003b
:100b0800010878001100200060902000010878009a
:100b1800f1012000209020000108780001c0210088
:100b28000090200001087800009020001000780054
:100b3800800078006100b300009020000108780070
:100b48001300370071112000d0f82d00a6fe070011
:100b58002108a800000420002007980040902000e9
:100b6800ae009000010878002e0090008000d100af
:100b780060902000010878000090200010007800a4
:100b8800800078006100b300009020000108780020
:100b98001e80fb000080fa00000006000000fa003a
:100ba800c14524000091200001087800818b2800ad
:100bb800e090200001087800a09020001000780044
:100bc800800078006100b300a09020000108780040
:100bd800a09020009000780090ff2f008080600097
:100be800a0902000010878000080fa0000000600ac
:100bf8000000fa004004210001002100070009005c
:100c0800b05878008000b10001c4b3000000eb00c8
:100c1800ba0107000080fa00000006000400fa008c
:100c2800881f78000000eb00710007000084fb00bb
:100c3800100020006e0007000080fb004800dd0067
:100c4800800074004004210001087800400421005d
:100c58009000780070442400808f50000200320019
:100c680015000700efff3700400421001007980027
:100c78000040eb00004f7800090037001e80fb00a1
:100c88005b000700804078001e0090000148780053
:100c98001e0090000000e800100798001e4fe800b2
:100ca80070c0b3009e4f1000f4ff36004f04780068
:100cb8000080fa00000006000600fa004034280010
:100cc800100798000000eb00200798000a00370082
:100cd8001e009000904078001e0090000000e80080
:100ce800100798002e0090003c0007002e0090008e
:100cf8000000e800200798002e009000e70f500041
:100d0800f3ff360040042100413428003102be00c0
:100d18002103be000498be000690be000000eb0050
:100d28002007980007003700154ea8000060fe0055
:100d3800154ea9000060fe002e0090000000e8009b
:100d4800200798002e009000e20f5000f6ff3400b4
:100d58000080fa00000006000200fa00004f780048
:100d68001e80fb00a2002000110009000280d800ac
:100d78008000fd00804078001e80fb00a20020005b
:100d8800811f7800110009000280d8000101780055
:100d9800cf0078000080fb004400dd0000c0700038
:100da8000080fb000080fa00000006000200fa0044
:100db800004f78001e407800ef4060001e80fb0066
:100dc8004400de000080fb00ea00b80000c04000dc
:100dd8000080fb000080fa00000006000600fa0010
:100de80010079800414798000080fa0000000600ac
:100df8000200fa00000f78000080fa0000000600e8
:100e08000000fa00154ea900152ea800112ea90001
:100e18006c010700340007006a010700152ea900bd
:100e280068010700154ea900660107000080fa0056
:100e3800000006000000fa00152ea900154ea900b2
:100e4800112ea900154ea8005e010700152ea80056
:100e58005c010700154ea9005a010700112ea800d1
:100e680021000700570107000080fa000000060073
:100e78000200fa00004f7800112ea9001e04e000bd
:100e880002003200152ea80001003700152ea90017
:100e98000000000000000000154ea80049010700ee
:100ea800154ea900470107000080fa00000006005f
:100eb8000200fa00112ea80042010700154ea800f2
:100ec8004001070030e12000104078000080fb005e
:100ed8000000d100614f6000154ea9001e80fb0084
:100ee8000080fa00000006000000fa00154ea80075
:100ef800114ea800330107000060fe0030e1200019
:100f080010407800644060000004e000faff3200fe
:100f1800114ea9000080fa00000006000600fa0041
:100f2800204798002e409000104798000040eb00a2
:100f3800004f78000800370001c8b3001e40900039
:100f480000c06000caff07001e409000004040003b
:100f5800104798001e4fe80070c0b3009e4f100065
:100f6800f5ff3600112ea80016010700deff070066
:100f78001401070030e12000104078000080fb00d9
:100f88000000d10061406000004f7800154ea900b4
:100f98001e04e000030032000000eb002007980068
:100fa8000200370010002000200798002e00900053
:100fb8000080fa00000006000200fa000040eb0082
:100fc800004f7800090037001e40900000404000a4
:100fd80010479800b6ff0700804078001e40900038
:100fe80001407000104798001e4fe80070c0b30021
:100ff8009e4f1000f4ff36001e4090000080fb005a
:101008000080fa00000006000200fa000040eb0031
:10101800004f7800090037001e4090000040400053
:1010280010479800a2ff0700804078001e409000fb
:1010380001407000104798001e4fe80070c0b300d0
:101048009e4f1000f4ff360010c0b30088ff070061
:101058001e4090000080fb000080fa00000006009f
:101068000400fa002047980065ff070000cab30093
:10107800aaff07002e409000a8ff070060ff0700a6
:1010880010cab300a5ff0700dfff0700004f780074
:1010980068ff07001e80fb000080fa0000000600c1
:1010a8000400fa001007980055ff070000cab300b3
:1010b8009aff07000e80e8000000e8001040780062
:1010c80096ff07000e80e8001040780093ff0700a5
:1010d8004bff070010cab30090ff0700caff0700c4
:1010e800004f780053ff07001e80fb000080fa00c5
:1010f800000006000600fa002047980031479800d3
:1011080000002100000f78003dff070000cab3006f
:1011180082ff07002e40900080ff070038ff07007d
:1011280010cab3007dff0700a3ff070080407800c6
:101138001e007800014878001e0fe8003e4090002d
:101148000040e900304798003e4090000004e0006d
:1011580006003a0010c0b30045ff070035ff07003e
:101168008000200020079800030037000040eb00b3
:101178003fff0700ecff37002e0090000080fa00c8
:10118800000006000800fa00100798004147980080
:101198001bff070000cab30060ff07000e80e800cd
:1011a8000000e800104078005cff07000e80e800af
:1011b8001040780059ff070011ff070010cab3005c
:1011c80056ff070000002100000f78007aff070093
:1011d800804078001e007800014878001e0fe80063
:1011e8004e4090000040e900404798004e40900073
:1011f8000004e00006003a0010c0b3001cff07001e
:101208000cff07000001200030079800030037009a
:101218000040eb0016ff0700ecff37003e0090008f
:101228000080fa00000006000400fa002047980039
:10123800314798002e409000104798000040eb007e
:10124800004f78000d003700edfe070000cab3001c
:1012580032ff07001e40900030ff07003e4090001c
:101268002eff0700f3fe0700450007001e40900010
:101278000040e800104798001e4fe80070c0b30017
:101288009e4f1000f0ff36000080fa0000000600b4
:101298000400fa0020479800314798000000210018
:1012a800000f7800d6fe070000cab3001bff070036
:1012b8002e40900019ff07001e00780010407800ab
:1012c8001e0fe80015ff07003e4090000040e900af
:1012d800304798003e4090000004e000f6ff3a00d6
:1012e800d4fe070000cc2500510120005c01070056
:1012f800100020000080fa00000006000600fa0036
:101308001007980041479800bdfe070000cab300c7
:1013180002ff07000e80e8000000e8001040780097
:10132800fefe07000e80e80010407800fbfe070074
:1013380000002100000f78001e007800104078009f
:101348001e0fe800f5fe07004e4090000040e9003f
:10135800404798004e4090000004e000f6ff3a0035
:10136800b4fe070000732500510020003c0107006f
:101378000060fe00000120000080fa000000060066
:101388000200fa0040c6b300104798009cfe070010
:1013980000cab300e1fe0700004f78001e04e00019
:1013a80006003a001e4090000040e90010479800ef
:1013b8001e4090000004e000f4ff3a000080fa00ac
:1013c800000006000200fa0010c0b300004f7800c9
:1013d8000060fe00600420000100200020010700da
:1013e8001e4fe9001e04e000f9ff3a000080fa00f1
:1013f800000006000000fa000000000000000000e5
:101408000080fa00004006000000fa00000000001a
:10141800000000000080fa0000400600801f7800ed
:101428000000fa00b08280000000e800b082880066
:1014380055d0bf000040e80055f0b70010c0b30019
:1014480058f0b70055d0bf00ea4f500002003a00ec
:101458000040eb0055f0b70000e8a9000080fa0052
:101468004f0078000040060000a0fe000400fa00cb
:1014780050e12000104078000080fb004200de00b0
:10148800614060000004a2006140600061406000ab
:101498004201dd0050e1200090407800b0cfb30059
:1014a80000c060000240700051e1200080487800d0
:1014b80054d0bf000040e80054f0b70054d0bf003b
:1014c8006f40600054f0b70054d0bf000004e00043
:1014d80011003a0015cea90053d0bf000040e80023
:1014e80053f0b70053d0bf006f40600053f0b7000f
:1014f80053d0bf000004e0000b003a0052d0bf00f8
:101508000040e80052f0b70052d0bf006f406000c2
:1015180052f0b7000400370052d0bf000004e000ca
:101528000100320015cea8000000200046d0bf0000
:10153800000601002300370023003700330037007e
:10154800390037003a0037003b0037004b003700be
:101558004004210010009000100798001e00900021
:10156800e30f5000300032001e009000e30f5000df
:1015780007003e001e009000e10f500012003200ec
:101588001e009000e10f500020003e000d003700c3
:101598001e009000e50f5000270032001e0090004a
:1015a800e50f5000220039001e009000e60f5000a1
:1015b800320032001e009000e70f50003000320069
:1015c800450037004400370050e120001040780003
:1015d8000080fb004500de00614060000004a200be
:1015e80061406000614060004501dd0050e120007d
:1015f80090407800f0cdb30000c060000240700059
:1016080051e12000804878003300370053d0bf00f4
:101618000004e00002003a0015aea8002e003700d2
:1016280015aea9002c0037002368a8002a0037004f
:101638002368a8002800370050e1200010407800f7
:101648000080fb004500de00614060000004a2004d
:1016580061406000614060004501dd0050e120000c
:1016680090407800f0cdb30000c0600002407000e8
:1016780051e1200080487800170037001600370035
:10168800d08280004200de0080407800d082800056
:1016980080c06800d08280004300de0080c06800ff
:1016a800d08280004500de0000c06800614f600005
:1016b800d08280008000d1001e80fb004f00dd003a
:1016c80000807000d0828800d0828000ca00de00ce
:1016d80060902000010878000108a9000080fa0045
:1016e8000080fe00004006000000fa0015aea900c8
:1016f8002368a9000368a9000080fa0000400600da
:101708001080ba00000006001000ba0000000600b1
:10171800801f78000500fc00500520007039880003
:10172800a00a20007039880029e7a80000000000fe
:101738000000000029e7af00feff37004f007800e7
:1017480000000600a2028000623988005139880032
:1017580014002400433980000418e100020032001c
:10176800f10fb2000b003700010278000410a2004c
:101778009482ba003100b2005400f800a60f20008d
:10178800a60288008088bb000110a2008588bb00e3
:10179800040037005400f800a60f2000a6028800b5
:1017a8008088bb005400f90000000600a2028000f7
:1017b80062398800513988001400240043398000b8
:1017c8000418e10002003200f10fb2000b003700ec
:1017d800010278000410a2009402ba003100b2009d
:1017e8005400f800a60f2000a60288008008bb005d
:1017f8000110a2008508bb00040037005400f8005f
:10180800a60f2000a60288008008bb005400f9003b
:0418180000000600c6
:020000040000fa
:10181c0056100000040000008200000000000000d0
:10182c0003000000401000001000000080000000c9
:10183c00001000004000000080000000501000006c
:10184c0006000000800000005a100000020000009a
:0c185c0082000000e1ac00000000000071
:020000040000fa
:10186800f03fb1000180b10006003500ee03090029
:1018780000000000403fb1000180b100fbff3d00c7
:101888001000b000203fb0000200350000800900c1
:08189800000000000000060042
:00000001FF
